:020000040000fa
:080000000001040000000000f3
:020000040000fa
:0400080014020000de
:020000040000fa
:04000c0014020000da
:020000040000fa
:0400100014020000d6
:020000040000fa
:0400140014020000d2
:020000040000fa
:0400180014020000ce
:020000040000fa
:04001c0014020000ca
:020000040000fa
:0400200014020000c6
:020000040000fa
:0400240014020000c2
:020000040000fa
:0400280014020000be
:020000040000fa
:04002c0014020000ba
:020000040000fa
:0400300014020000b6
:020000040000fa
:0400340014020000b2
:020000040000fa
:0400380014020000ae
:020000040000fa
:04003c0014020000aa
:020000040000fa
:04004000e8010000d3
:020000040000fa
:0400440014020000a2
:020000040000fa
:04004800140200009e
:020000040000fa
:04004c00c8010000e7
:020000040000fa
:040050001402000096
:020000040000fa
:04005400d0010000d7
:020000040000fa
:04005800140200008e
:020000040000fa
:04005c00140200008a
:020000040000fa
:040060001402000086
:020000040000fa
:040064001402000082
:020000040000fa
:04006800140200007e
:020000040000fa
:04006c00140200007a
:020000040000fa
:040070001402000076
:020000040000fa
:040074001402000072
:020000040000fa
:04007800140200006e
:020000040000fa
:04007c00140200006a
:020000040000fa
:040080001402000066
:020000040000fa
:040084001402000062
:020000040000fa
:04008800140200005e
:020000040000fa
:04008c00140200005a
:020000040000fa
:040090001402000056
:020000040000fa
:040094001402000052
:020000040000fa
:04009800140200004e
:020000040000fa
:04009c00140200004a
:020000040000fa
:0400a0001402000046
:020000040000fa
:0400a4001402000042
:020000040000fa
:0400a800140200003e
:020000040000fa
:0400ac00140200003a
:020000040000fa
:0400b0001402000036
:020000040000fa
:0400b4001402000032
:020000040000fa
:0400b800140200002e
:020000040000fa
:0400bc00140200002a
:020000040000fa
:0400c0001402000026
:020000040000fa
:0400c4001402000022
:020000040000fa
:0400c800140200001e
:020000040000fa
:0400cc00140200001a
:020000040000fa
:0400d0001402000016
:020000040000fa
:0400d4001402000012
:020000040000fa
:0400d800140200000e
:020000040000fa
:0401080014020000dd
:020000040000fa
:04010c0014020000d9
:020000040000fa
:0401100014020000d5
:020000040000fa
:0401140014020000d1
:020000040000fa
:0401180014020000cd
:020000040000fa
:04011c0014020000c9
:020000040000fa
:0401200014020000c5
:020000040000fa
:0401240014020000c1
:020000040000fa
:0401280014020000bd
:020000040000fa
:04012c0014020000b9
:020000040000fa
:0401300014020000b5
:020000040000fa
:0401340014020000b1
:020000040000fa
:0401380014020000ad
:020000040000fa
:04013c0014020000a9
:020000040000fa
:04014000e8010000d2
:020000040000fa
:0401440014020000a1
:020000040000fa
:04014800140200009d
:020000040000fa
:04014c00c8010000e6
:020000040000fa
:040150001402000095
:020000040000fa
:04015400d0010000d6
:020000040000fa
:04015800140200008d
:020000040000fa
:04015c001402000089
:020000040000fa
:040160001402000085
:020000040000fa
:040164001402000081
:020000040000fa
:04016800140200007d
:020000040000fa
:04016c001402000079
:020000040000fa
:040170001402000075
:020000040000fa
:040174001402000071
:020000040000fa
:04017800140200006d
:020000040000fa
:04017c001402000069
:020000040000fa
:040180001402000065
:020000040000fa
:040184001402000061
:020000040000fa
:04018800140200005d
:020000040000fa
:04018c001402000059
:020000040000fa
:040190001402000055
:020000040000fa
:040194001402000051
:020000040000fa
:04019800140200004d
:020000040000fa
:04019c001402000049
:020000040000fa
:0401a0001402000045
:020000040000fa
:0401a4001402000041
:020000040000fa
:0401a800140200003d
:020000040000fa
:0401ac001402000039
:020000040000fa
:0401b0001402000035
:020000040000fa
:0401b4001402000031
:020000040000fa
:0401b800140200002d
:020000040000fa
:0401bc001402000029
:020000040000fa
:0401c0001402000025
:020000040000fa
:0401c4001402000021
:020000040000fa
:0401c800140200001d
:020000040000fa
:0401cc001402000019
:020000040000fa
:0401d0001402000015
:020000040000fa
:0401d4001402000011
:020000040000fa
:0401d800140200000d
:020000040000fa
:100200002f8420000eff20000e0188000000000057
:10021000000020000000e000020032000001200089
:100220002002880014000700810007000000e000a1
:1002300003003a00e04422000100200002003700e1
:100240000000200001002000810f7000010032003a
:1002500014000700000020000000e000020032004f
:1002600000000200000000002a230200000000003d
:100270000040da000000fe004440a900e0db20005e
:100280000000e0000300320000002000a001880010
:100290004440a800000006008a1f78008b1f7800e9
:1002a0000000060091018800800478000000eb0047
:1002b0001a003700e284440032a0b4009905ba0065
:1002c000e284440032a0b4009906ba00e2844400fb
:1002d00032a0b4000006eb00476fde00fd07b2005d
:1002e000636ce10003003a00ebff07000000eb0045
:1002f0000a003700606ce10004003a00005deb008a
:100300008b05e900fdff3e00040037006168e10055
:10031000010032000086eb000b00070019c7ba008d
:100320001905ba000e04e00003003a000a00e000dc
:10033000e0ff3a0000000600fe07b2009e018800c0
:100340008a047800f5ff3700395dba008b05e900b3
:100350000c003200295dba008b05e900080032006c
:100360000c00e00003003a00e284440032a0b40034
:10037000f5ff370019ddba008b05e900faff3a00f6
:100380008904e800e184440032a0b40000000600c3
:100390000000fa008520a9000080fa000040060055
:1003a000801f78000000fa0000148000b040880030
:1003b00010148000c040880020148000d0408800c5
:1003c0008560a9000080fa004f0078000040060018
:1003d000809fbe000000fa000621ef001000200000
:1003e00030418800104180000000e8001041880082
:1003f000204180000000e800204188001141800079
:10040000803e2000808f500003003a002228ef0039
:10041000100020004041880084c0a9000080fa003c
:100420004f00be00004006000040da000000fe0061
:10043000000005000001be001e0007000470a700b8
:1004400003f0a10003f8a30013003a006509b1000e
:1004500010003200090035006928e1000200350073
:1004600001002800000005000000400081804800d5
:100470008502e900fcff3a0000000600f88f420008
:10048000050035008100d1000080d3008502e8001e
:10049000fcff3a00000006008000eb0000000500b1
:1004a0004f89de00820178007e0237006011b800bb
:1004b0008c023700c70ade00f107b200f50fb20068
:1004c00008003200e1cf4200020032000170a000bb
:1004d00024000500810f70000100320004080500af
:1004e00044000500810f700002003a00140005006e
:1004f0008502e9000000400081c04800fcff3b008d
:100500000170a00024000500889fbe008a9fbe00e5
:100510008c9fbe001b0020000202be000586680002
:1005200006002800060666004709de00f20fb2004a
:10053000820032000243e80080003200c729de005a
:10054000f30fb2007d0032000343e8007b0032006d
:10055000f107b2000170a000f507b2000570a0001d
:10056000c708dd004903de00868070004700dd001b
:10057000c72add004923de00868272004722dd00a3
:100580000305510004035000858358000300310027
:1005900000004000818048000a05e9008c1f7800b7
:1005a0008a9fbe000400500085805800040242006b
:1005b00085824a0000004000818048000005eb0071
:1005c0000004be006033b8000406be000d48e10020
:1005d00056003100110009004dccd8000c01b800c4
:1005e0000d02b8008481410060824a00828353007a
:1005f00003045c0084845c0060055d000a00e00088
:1006000025003a00800578000d40e10049003100e6
:100610008800780007007800110009004d88d80094
:100620000c01b8000d02b8008481410060824a00cc
:100630006003110083835b0004045c00e0845c00c1
:100640000900e00021003a004f01be000300e00075
:100650002b003200e3016000070673008c817100fb
:1006600001003200640070004200de004e5edd00da
:100670000c007000c258de0001e0a00083010700fa
:10068000cf017800818071004f06be004f05be008b
:100690004f04be00000006008c8343000d044c0094
:1006a000e0844c0060054d000000e9000a00e00015
:1006b000d4ff32008c8343000d044c00e0844c00d6
:1006c00060054d000000e900ceff37000c03430039
:1006d0008d834b0060044c00e0844c000000e90076
:1006e0000900e000d8ff32000c0343008d834b006b
:1006f00060044c00e0844c000000e900d2ff3700a9
:100700004200de004e5edd000c007000c258de00cc
:1007100001e0a000cf0178000300e000daff320022
:1007200060001000e0801800d7ff3700f0ff2f00b6
:10073000aaff3700f0ff2f00b9ff37000404be0006
:100740002f010700870678000004fd008104fd00ea
:100750002b010700078366000678a3000300320020
:100760000960a7000800be002c0037000d78a30028
:10077000020032000800be00280037000778a300fe
:1007800026003a0001f0a10009f0a1000668a300cc
:1007900003003200f1ff2700f0ff2f00baff3700ff
:1007a0000d68a300030032000800be008c807000ba
:1007b000b5ff37000768a30007003a000648a3000a
:1007c00003003200f1ff2700f0ff2f00aeff3700db
:1007d0000d48a300030032006000b8008c80700058
:1007e000a9ff37000748a3000400320001f82700e2
:1007f000000020008c807000a3ff37007601070006
:100800000004fd008104fd0002057800720107006c
:100810000802be008a01780059ff37000160a0007d
:10082000120220000242880097ff37000100e0001a
:10083000120032000500e00010003200889fbe0068
:100840008a9fbe008c9fbe000006eb0001f8a3004b
:100850000300320060001000e08018000cf0a000df
:1008600005f8a3000300320060021200e0821a00c3
:100870000cf0a2008005eb0041ff37006000b800db
:1008800002000500038368000700280007036300d7
:10089000470ade000480a100c71ade000580a1001f
:1008a000f70f20000720e100420032000728e10096
:1008b00040003200889fbe008a9fbe008c1f7800d7
:1008c000f107b200f307b2000400e0006400320058
:1008d0000170a0000500e000680032000370a00075
:1008e00085054200eb07b1000204b8000302b8001e
:1008f0008484440060854a00020ab800848444006d
:100900000a854a00030ab8000405450004003300c4
:100910000804d0008984d2000a85d2008b05e90042
:100920006158e1003d00350002102000090161001e
:100930000308200089816100f70720008783640095
:1009400008867300c84cde00c853dd00878474003d
:100950004855de000300e000060032008203760006
:10096000040032008904e80060054d000a88a300f5
:100970000c003a00f70f20000758e10044003d004a
:100980000a70a100c75ddd000a8575008a0073004a
:10099000090078004f0678004f05be004f04be00e6
:1009a000000006000a05d1008984d3008b05e80009
:1009b000f0ff3700881f78000604780090000700d9
:1009c000070278000001fd008101fd008c00070096
:1009d00087027800850372000778a30005003200c3
:1009e0000001fd008101fd009f0007004f04780019
:1009f00000000600850372000748a30003003200d0
:100a0000f0ff2f00f1ff2700f8ff37000000200063
:100a100001f8270088807000f4ff37008801780013
:100a20004848dd00808171004848de00c850dd0084
:100a300001007000c850de00060478000b01780049
:100a40001600070088807000d2ff37000500e00024
:100a500005003200170020003a0007009dff370014
:100a600081037000f9ff3a00860078004f06780095
:100a70004f05be004f04be00000005008303710057
:100a8000f9ff3200270020002e00070094ff3700f6
:100a900001f8270086807000f4ff37000100e000b5
:100aa00026003200610111007810e10023003c00b3
:100ab0006022b8007010e100040035008002780068
:100ac000010078008000eb00700151000200e0009e
:100ad0000900340070031100062add00822ade00be
:100ae0008603dd00878272000200de00860bdd00d7
:100af000070070008208de0084817100f4ff270087
:100b000004826200848171000400280084826200f3
:100b10006102600005f0a60000000600048271007a
:100b2000070032000000e800e080480000000600f6
:100b30000002be006000b800efff37006000b800a0
:100b400000000600889fbe000004eb006138e10051
:100b500016003a000100e00008003a00c800de007c
:100b60004800dd00880020000100e00003003a009a
:100b7000c800de004800dd00680444008184cf0026
:100b8000e9845400060034008908dd00f083140075
:100b90008703de00878070000900dd00090444003f
:100ba000610214004f04be00000006000300e000d4
:100bb00008003a00c811de004811dd00880020005e
:100bc0000300e00003003a00c811de004811dd0018
:100bd000680444008384cf00e98454000600340094
:100be0008919dd00f08314008713de00878171000e
:100bf0000911dd0009044400e1021400e9ff370097
:100c00002700200001f0a70017002000470bde009e
:100c1000f60fb200040032000643e8000a0032007a
:100c20004702b3000000060001037800f607b20097
:100c30000603700002003a000703b300000006003c
:100c40008702b3000000060001037800f607b20037
:100c500006037000020032000770a00000000600ca
:100c60000760a000000006000478a3000400320022
:100c70000578a300030032000168a30001003a00d8
:100c80000200be000160a0000000060081017000ab
:100c9000270032008002eb0001f8a30003003200bd
:100ca00060001000e080180015002000f40720000c
:100cb0000202420020003400f70320008703600096
:100cc0000604200000036300020820000001610008
:100cd0004700de00c909dd0000807100c708de00a2
:100ce0000600e000080032008703710006003200b1
:100cf0001000b0000180b0000188a30002003200a3
:100d0000c108de000402e800f107b200f30f200082
:100d10000320e10003003d004722dd008100720056
:100d20002900370001f827000000eb0026003700fb
:100d30006000b80000000600680212007f20e10099
:100d4000020034006000b8001f0037006011b800d6
:100d50007020e10004003500800178000100780077
:100d60008000eb00700252000400e0000900340033
:100d7000f00312000719dd008419de000703dd000f
:100d8000868171000400de00070bdd0006007000a4
:100d90008408de00f7ff2700838363008703710068
:100da0000600280003036300070032000700e0008c
:100db00003003a006101600002817300020032000a
:100dc0001000b0000180b0000500a6000000060081
:100dd00001f0a000000006004f0ade004709de0017
:100de000f107b200f20fb2000b003200f207b100bf
:100df0000170a000c708dd00c901de00838070001b
:100e00004700dd000400a60000000600600010009e
:100e1000e080180000000600810f700001003a0019
:100e2000000006008182cf000500e00010003e00b7
:100e30008082cf00ee8242007028e1000400390079
:100e400007003e00800078000000eb000e00370035
:100e5000708312008600de000500dd000a00370006
:100e6000708352008600dd000000eb0006003700b2
:100e7000e28252008508dd00708312000603de0066
:100e8000868070000500dd007507b0000501ea00ee
:100e90000400a6000000060060001000e0801800ba
:100ea00000000600881f7800030478000300e000bb
:100eb00007003d0060001000e0801800600119008c
:100ec000e081190002003b0001f02d000300370013
:100ed0000400070008f0a70001f0a0004f0478000c
:100ee00000000600889fbe008a9fbe00008270003e
:100ef0000402710004827100260032000004be006a
:100f00000200be006011b8006b09200095022000ad
:100f10000182cf000a0039000541b1000082cf00f4
:100f2000070039000541b1000982cf0004003900f3
:100f30000541b1000882cf00010039000541b10030
:100f400005425200120032000a003b00828171000b
:100f5000610164008100d1000080d3008984d30046
:100f60000884d3008b05e8000442e800f7ff3a004c
:100f7000070037000804440089844c000000480042
:100f8000818048008b05e9000442e900f9ff3a003e
:100f9000030007004f05be004f04be00000006001e
:100fa00081002000618055000b003d000b002000f7
:100fb00061fe2f000100e1001d00340082817100fc
:100fc000610164008904d1000884d3000000e800b6
:100fd000faff3a0071002000610064000300700015
:100fe000020060000900320061044400e0844c000b
:100ff0000988a500050032008b05e8006808e100bb
:1010000002003a008904d1000884d300f20f2000c6
:101010000258e10005003d00c75ddd00f907b200a0
:101020008980750008007800000006000bf8270092
:081030008b00780000000500b0
:020000040000fa
:1010380000000000000000000000000000000000a8
:101048000000000000000000000000000000000098
:10105800000000003eff0000ff3e0000000000000e
:1010680000000000000d00000d000000000000005e
:10107800000400000703000000040000070300004c
:101088000000000000000000000000000000000058
:1010980010fe0000fe10000010fe0000fe10000010
:1010a800010f00000f010000010f00000f010000f8
:1010b8001c3e000022ff0000ff420000ce8c000012
:1010c80003070000040f00000f04000007030000de
:1010d8000000000006c60000f03c00000e02000000
:1010e80000040000070300000006000006000000de
:1010f8001e3f0000e1c10000412100003f1e00002a
:10110800060f0000090900000b0c00001e16000065
:1011180000000000040700000300000000000000b9
:1011280000000000000000000000000000000000b7
:1011380000000000f8fe00000701000000000000a9
:1011480000000000000700000e080000000000007a
:101158000000000001070000fef800000000000089
:1011680000000000080e0000070100000000000059
:1011780020a80000f870000070f80000a820000007
:101188000000000000000000000000000000000057
:101198002020000020fc0000fc200000202000008f
:1011a8000000000000010000010000000000000035
:1011b8000000000000000000000000000000000027
:1011c80000000000203c00001c000000000000009f
:1011d8002020000020200000202000002020000007
:1011e80000000000000000000000000000000000f7
:1011f80000000000000000000000000000000000e7
:1012080000000000000c00000c00000000000000be
:101218000000000000c00000f03c00000f030000c8
:10122800000c00000f030000000000000000000098
:10123800feff00000101000001010000fffe0000a8
:10124800070f000008080000080800000f0700004a
:101258000004000006ff0000ff000000000000007e
:1012680000080000080f00000f0800000800000038
:101278000203000081c10000613100001f0e000060
:101288000e0f00000908000008080000080c000004
:10129800020300000121000021210000ffde000000
:1012a800040c000008080000080800000f070000f0
:1012b800e0f00000988c000086ff0000ff000000ae
:1012c8000000000000000000080f00000f080000e8
:1012d8003f3f00002121000021210000e1c1000062
:1012e800040c000008080000080800000f070000b0
:1012f800fcfe00002321000021210000e0c00000c6
:10130800070f000008080000080800000f07000089
:101318000303000001810000e17900001f070000bd
:1013280000000000000f00000f0000000000000097
:10133800deff00002121000021210000ffde000067
:10134800070f000008080000080800000f07000049
:101358001e3f00002121000021210000fffe0000a7
:101368000008000008080000080c0000070300003f
:101378000000000000180000180000000000000035
:101388000000000000060000060000000000000049
:101398000000000000180000180000000000000015
:1013a80000000000101e00000e00000000000000f9
:1013b80040e00000b01800000c0600000200000029
:1013c8000000000001030000060c000008000000f7
:1013d80000a00000a0a00000a0a00000a000000045
:1013e80000000000000000000000000000000000f5
:1013f80000020000060c000018b00000e0400000e9
:10140800000800000c0600000301000000000000b6
:101418000203000001c10000e13100001f0e0000be
:1014280000000000000d00000d000000000000009a
:101438000203000001c10000e13100001f0e00009e
:1014480000000000000d00000d000000000000007a
:10145800f8fc00008683000083860000fcf800008a
:101468000f0f000000000000000000000f0f000038
:10147800ffff00002121000021210000ffde000005
:101488000f0f000008080000080800000f07000000
:10149800fcfe00000301000001010000030600003b
:1014a800030700000c080000080800000c060000f4
:1014b80001ff0000ff01000001030000fefc000026
:1014c800080f00000f080000080c000007030000c8
:1014d80001ff0000ff21000021710000030300004c
:1014e800080f00000f080000080800000c0c00009e
:1014f80001ff0000ff21000021710000030300002c
:10150800080f00000f0800000000000000000000a5
:10151800fcfe00000301000041410000c3c60000ba
:10152800030700000c08000008080000070f00006f
:10153800ffff00002020000020200000ffff000027
:101548000f0f000000000000000000000f0f000057
:101558000001000001ff0000ff0100000100000081
:1015680000080000080f00000f0800000800000035
:10157800000000000000000001ff0000ff01000063
:10158800060e000008080000080f00000700000011
:1015980001ff0000ff700000d88c00000703000066
:1015a800080f00000f000000000100000f0e0000ef
:1015b80001ff0000ff010000000000000000000023
:1015c800080f00000f080000080800000c0c0000bd
:1015d800ffff00000c780000780c0000ffff0000ff
:1015e8000f0f000000000000000000000f0f0000b7
:1015f800ffff00001c38000070e00000ffff000043
:101608000f0f000000000000000000000f0f000096
:10161800feff00000101000001010000fffe0000c4
:10162800070f000008080000080800000f07000066
:1016380001ff0000ff210000212100003f1e0000e3
:10164800080f00000f080000000000000000000064
:10165800feff00000101000001010000fffe000084
:10166800070f0000080e00001c3800002f070000bc
:1016780001ff0000ff21000021610000ff9e000023
:10168800080f00000f080000000000000f0f000006
:101698000e1f00003121000021610000c7860000f4
:1016a800060e000008080000080800000f070000e8
:1016b8000303000001ff0000ff0100000303000016
:1016c80000000000080f00000f08000000000000e4
:1016d800ffff00000000000000000000ffff000006
:1016e800070f000008080000080800000f070000a6
:1016f800ffff00000000000000000000ffff0000e6
:1017080001030000060c00000c06000003010000a5
:10171800ffff000000e00000e0000000ffff000005
:10172800010f00000e030000030e00000f0100006f
:10173800070f000098f00000f09800000f07000065
:101748000e0f000001000000000100000f0e000055
:101758000f1f000030e00000e03000001f0f000005
:1017680000000000080f00000f0800000000000043
:1017780003830000c1610000311900000f07000059
:101788000f0f000008080000080800000c0c0000fb
:1017980000000000ffff0000010100000000000041
:1017a800000000000f0f0000080800000000000003
:1017b80055aa000055aa000055aa000055aa000025
:1017c80055aa000055aa000055aa000055aa000015
:1017d8000000000001010000ffff00000000000001
:1017e80000000000080800000f0f000000000000c3
:1017f800080c000006030000030600000c080000a7
:1018080000000000000000000000000000000000d0
:1018180000000000000000000000000000000000c0
:101828001010000010100000101000001010000030
:1018380000000000080f0000070000000000000082
:101848000000000000000000000000000000000090
:10185800009000009090000090f00000e000000070
:10186800070f000008080000080700000f08000024
:1018780001ff0000ff10000010300000e0c0000071
:10188800080f000007080000080800000f07000004
:10189800e0f00000101000001010000030200000e0
:1018a800070f000008080000080800000c040000ea
:1018b800c0e000003010000011ff0000ff00000031
:1018c800070f000008080000080700000f080000c4
:1018d800e0f000009090000090900000f0e0000020
:1018e800070f000008080000080800000c040000aa
:1018f80000100000feff00001111000003020000ac
:10190800000800000f0f00000800000000000000a1
:10191800e0f000001010000010e00000f0100000df
:10192800276f000048480000487f00003f00000083
:1019380001ff0000ff20000010100000f0e0000090
:10194800080f00000f000000000000000f0f00004b
:101958000010000010f60000f60000000000000073
:1019680000080000080f00000f0800000800000031
:101978000000000010100000f6f600000000000053
:1019880030600000404000007f3f00000000000081
:1019980001ff0000ffc00000c06000003010000020
:1019a800080f00000f000000010300000e0c0000eb
:1019b8000001000001ff0000ff000000000000001f
:1019c80000080000080f00000f08000008000000d1
:1019d800f0f0000030e00000e0300000f0e000002f
:1019e8000f0f000000070000070000000f0f0000a5
:1019f80010f00000e010000010100000f0e00000ff
:101a0800000f00000f000000000000000f0f000092
:101a1800e0f000001010000010100000f0e00000de
:101a2800070f000008080000080800000f07000062
:101a380010f00000e010000010100000f0e00000be
:101a4800407f00007f480000080800000f070000e2
:101a5800e0f000001010000010e00000f01000009e
:101a6800070f000008080000487f00007f400000c2
:101a780010f00000e01000001010000030200000fe
:101a8800000f00000f000000000000000000000030
:101a980060f00000909000009010000030200000de
:101aa800040c000008080000090900000f060000e7
:101ab80010100000feff00001010000000000000e1
:101ac80000000000070f0000080c000004000000e0
:101ad800f0f000000000000000f00000f00000003e
:101ae800070f000008080000080700000f080000a2
:101af800f0f000000000000000000000f0f000001e
:101b080001030000060c00000c06000003010000a1
:101b1800f0f000000080000080000000f0f00000fd
:101b2800070f00000c070000070c00000f0700005b
:101b38001030000060c00000c060000030100000dd
:101b4800080c000006030000030600000c08000053
:101b5800f0f000000000000000000000f0f00000bd
:101b6800474f000048480000486800003f1f000039
:101b78003030000010900000d070000030100000dd
:101b88000c0e00000b090000080800000c0c0000f7
:101b9800000000000000000000000000005f0000de
:101ba800000000000007000000070000001400000b
:101bb8007f1400007f140000242a00007f2a000000
:101bc8001223000013080000646200003649000078
:101bd800552200005000000005030000000000002e
:101be800001c00002241000000000000412200000b
:101bf8001c000000082a00001c2a00000808000039
:101c0800083e0000080800000050000030000000f6
:101c18000008000008080000080800000030000064
:101c2800300000000020000010080000040200003e
:101c38003e510000494500003e000000427f000080
:101c480040000000426100005149000046210000a8
:101c5800414500004b31000018140000127f0000bd
:101c68001027000045450000453900003c4a0000a7
:101c78004949000030010000710900000503000017
:101c8800364900004949000036060000494900006d
:101c9800291e000000360000360000000000000089
:101ca8005636000000000000000800001422000062
:101cb8004114000014140000141400004122000014
:101cc800140800000002000001510000090600008d
:101cd80032490000794100003e7e000011110000e9
:101ce800117e00007f49000049490000363e00008f
:101cf80041410000412200007f41000041220000d4
:101d08001c7f000049490000494100007f0900008c
:101d180009010000013e000041410000513200006d
:101d28007f080000080800007f000000417f0000d5
:101d38004100000020400000413f0000017f0000fa
:101d480008140000224100007f40000040400000cd
:101d5800407f000002040000027f00007f040000b2
:101d6800081000007f3e000041410000413e000095
:101d78007f09000009090000063e000041510000eb
:101d8800215e00007f090000192900004646000076
:101d98004949000049310000010100007f010000ad
:101da800013f000040400000403f00001f200000ad
:101db800402000001f7f000020180000207f000046
:101dc8006314000008140000630300000478000096
:101dd8000403000061510000494500004300000071
:101de800007f0000414100000204000008100000cc
:101df80020410000417f00000000000004020000b4
:101e08000102000004400000404000004040000083
:101e180000010000020400000020000054540000eb
:101e2800547800007f48000044440000383800001f
:101e380044440000442000003844000044480000a6
:101e48007f3800005454000054180000087e000039
:101e5800090100000208000014540000543c00006e
:101e68007f0800000404000078000000447d0000a2
:101e78004000000020400000443d00000000000039
:101e88007f10000028440000004100007f4000004f
:101e9800007c000004180000047800007c080000a2
:101ea800040400007838000044440000443800006e
:101eb8007c1400001414000008080000141400002a
:101ec800187c00007c08000004040000084800009a
:101ed8005454000054200000043f00004440000017
:101ee800203c000040400000207c00001c20000036
:101ef800402000001c3c000040300000403c000036
:101f08004428000010280000440c00005050000035
:101f1800503c000044640000544c000044000000a1
:101f28000836000041000000000000007f000000ab
:101f3800000000004136000008000000080800000a
:101f48002a1c0000080800001c2a000008080000dd
:101f58000000000000000000000000000000000079
:101f68000000000000000000000000000000000069
:101f78000000000000000000000000000000000059
:101f88000000000000000000000000000000000049
:10239800dc0000003a0e0000080200007a0d000080
:1023a80000000000000000000000000000f0000035
:1023b8001010000010100000101000001010000095
:1023c8001010000010100000101000001010000085
:1023d8001010000010100000101000001010000075
:1023e8001010000010100000101000001010000065
:1023f8001010000010f000000000000000000000b5
:1024080000000000000000000000000000000000c4
:1024180000000000000000000000000000000000b4
:1024280000000000000000000000000000000000a4
:10243800000000000000000000f000001010000084
:102448001010000010100000101000001010000004
:102458001010000010100000901000001010000074
:1024680010100000101000001010000010100000e4
:102478001010000010f00000000000000000000034
:102488000000000000000000000000000000000044
:102498000000000000000000000000000000000034
:1024a80000000000000000000000000000ff000025
:1024b8000000000000000000000000000000000014
:1024c8001e12000012120000e200000000120000bc
:1024d800924e000020c8000024220000c000000026
:1024e80000000000000000000000000000000000e4
:1024f8000000000000ff00000000000000000000d5
:1025080000000000000000000000000000000000c3
:1025180000000000000000000000000000000000b3
:1025280000000000000000000000000000000000a3
:10253800000000000000000000ff00000000000094
:102548000000000000000000000000000020000063
:1025580030280000e40200000101000002e400004d
:1025680028300000200000000000000000000000eb
:102578000000000000ff0000000000000000000054
:102588000000000000000000000000000000000043
:102598000000000000000000000000000000000033
:1025a800000000000000000000000000007f0000a4
:1025b8004040000040400000404000004040000013
:1025c80041410000414100004040000040400000ff
:1025d80040400000404000004141000040400000f1
:1025e80040400000404000004040000040400000e3
:1025f80040400000407f0000000000000000000094
:1026080000000000000000000000000000000000c2
:1026180000000000000000000000000000000000b2
:1026280000000000000000000000000000000000a2
:102638000000000000000000003f00002020000013
:102648002020000020200000202000002020000082
:10265800202000002f28000028280000282f000034
:102668002020000020200000202000002020000062
:1026780020200000203f00000000000000000000b3
:102688000000000000000000000000000000000042
:102698000000000000000000000000000000000032
:1026a8000000000000000000000000000000000022
:1026b8000000000000000000000000000000000012
:1026c8000000000000000000000000000000000002
:1026d80000000000000000000000000000000000f2
:1026e80000000000000000000000000000000000e2
:1026f80000000000000000000000000000000000d2
:1027080000000000000000000000000000000000c1
:1027180000000000000000000000000000000000b1
:1027280000000000000000000000000000000000a1
:102738000000000000000000008000008080000011
:102748008080000080800000808000008080000081
:102758008080000080800000808000008080000071
:102768008080000080800000808000008080000061
:102778008080000080800000000000000000000051
:102788000000000000000000000000000000000041
:102798000000000000000000000000000000000031
:1027a80000000000000000000000000000fe000023
:1027b8000202000002020000020200000202000001
:1027c80002020000020200000202000002020000f1
:1027d80002020000020200000202000002020000e1
:1027e80002020000020200000202000002020000d1
:1027f8000202000002fe00000000000000000000cd
:1028080000000000000000000000000000000000c0
:1028180000000000000000000000000000000000b0
:1028280000000000000000000000000000000000a0
:10283800000000000000000000ff00000000000091
:102848000000000000000000000000000000000080
:1028580000fc00000404000004040000fc00000068
:102868000000000000000000000000000000000060
:102878000000000000ff0000000000000000000051
:102888000000000000000000000000000000000040
:102898000000000000000000000000000000000030
:1028a80000000000000000000000000000ff000021
:1028b800000000000082000082ff0000808000000d
:1028c800000000007e810000818100006600000099
:1028d80000090000492700001064000092910000e0
:1028e8006000000000000000000000000000000080
:1028f8000000000000ff00000000000000000000d1
:1029080000000000000000000000000000000000bf
:1029180000000000000000000000000000000000af
:10292800000000000000000000000000000000009f
:10293800000000000000000000ff00000000000090
:102948000000000000000000000000000006000079
:102958000a3300004080000000800000433200007d
:102968000a0600000000000000000000000000004f
:102978000000000000ff0000000000000000000050
:10298800000000000000000000000000000000003f
:10299800000000000000000000000000000000002f
:1029a800000000000000000000000000000f000010
:1029b80008080000080800000808000008080000cf
:1029c80008080000080800000808000008080000bf
:1029d80008080000080800000808000008080000af
:1029e800080800000808000008080000080800009f
:1029f80008080000080f00000000000000000000a8
:102a080000000000000000000000000000000000be
:102a180000000000000000000000000000000000ae
:102a2800000000000000000000000000000000009e
:102a38000000000000000000000f0000080800006f
:102a4800080800000808000008080000080800003e
:102a580008080000080900000a090000080800002a
:102a6800080800000808000008080000080800001e
:102a780008080000080f0000000000000000000027
:102a8800000000000000000000000000000000003e
:102a9800000000000000000000000000000000002e
:102aa800000000000000000000000000000000001e
:102ab800000000000000000000000000000000000e
:102ac80000000000000000000000000000000000fe
:102ad80000000000000000000000000000000000ee
:102ae80000000000000000000000000000000000de
:102af80000000000000000000000000000000000ce
:102b080000000000000000000000000000000000bd
:102b180000000000000000000000000000000000ad
:102b2800000000000000000000000000000000009d
:102b3800000000000000000000000000000000008d
:102b4800000000000000000000000000000000007d
:102b5800000000000000000000000000000000006d
:102b6800000000000000000000000000000000005d
:102b7800000000000000000000000000000000004d
:102b8800000000000000000000000000000000003d
:102b9800000000000000000000000000000000002d
:0c2ba800583d0000005900003d000000f6
:020000040000fa
:102bb4000200fa00004f78001e4078000004e00094
:102bc40004003200101780000050a0001017880085
:102bd40003003700101780000050a1001017880070
:102be4000080fa00000006000200fa00004f78009e
:102bf4001e4078000004e00004003200101780003a
:102c04000040a00010178800030037001017800050
:102c14000040a100101788000080fa0000000600a0
:102c24000200fa00004f78001e4078000004e00023
:102c340004003200101780000010a0001017880054
:102c440003003700101780000010a100101788003f
:102c54000080fa00000006000200fa00004f78002d
:102c64001e4078000004e0000400320010178000c9
:102c74000000a00010178800030037001017800020
:102c84000000a100101788000080fa000000060070
:102c94000200fa00004f78001e4078000004e000b3
:102ca40004003200501680000050a0005016880026
:102cb40003003700501680000050a1005016880011
:102cc4000080fa00000006000200fa00004f7800bd
:102cd4001e4078000004e00004003200501680001a
:102ce4000040a000501688000300370050168000f2
:102cf4000040a100501688000080fa000000060081
:102d04000000fa00dea2a900de82a900de22a900ea
:102d1400de02a900a8a2a800c6a2a900a882a80051
:102d2400c682a900a802a800c602a900a822a80079
:102d3400c622a900a842a800c642a900a862a80009
:102d4400c662a900d202a900d222a900d242a900d7
:102d5400d262a9000080fa00000006000200fa0016
:102d6400004f78001e4078000004e00008003a009c
:102d7400d202a900d222a900d242a900d262a9009b
:102d8400c662a900c642a900c622a900c602a900bb
:102d94001e407800e14f500008003a00d202a8001b
:102da400d222a800d242a800d262a800c662a8001b
:102db400c642a800c622a800c602a8000080fa00e5
:102dc400000006000400fa008e80e80080487800c5
:102dd4000e80e800104f7800b116800000ff2f002d
:102de40000806000b01688005116800000ff2f009c
:102df40000806000501688001e417800ef4061009a
:102e04000e00e800014878000e00e8001040780049
:102e14000080fb005116800000807000501688006e
:102e24001e80fb004400de00004f78001e80fb0083
:102e3400b116800000807000b01688000080fa008f
:102e4400000006000200fa00a0168000004f78007f
:102e54001e4078004400dd00004f780041168000d9
:102e64000e00e800014878000e00e80010407800e9
:102e7400ef4060000e00e800014878000e00e80012
:102e8400104078009e4040000e00e80001487800a1
:102e94000e00e800104078000080fa0000000600f0
:102ea4000000fa0010c0b3004fff07000040eb0021
:102eb4004dff07000080fa00000006000200fa003f
:102ec400004f78000040eb0063ff07000040eb0078
:102ed40053ff07001e407800baff0700f0ff070009
:102ee4000080fa00000006000400fa008e80e8006a
:102ef400800878000000eb00000f78000100370024
:102f04001e0fe8000e80e800100078009e00780094
:102f1400808f5000faff39000080fa00000006009c
:102f24000200fa000040eb004bff070010c0b300a2
:102f34003bff070010c0b30088ff070010c0b300b8
:102f440029ff0700bfff0700004f78000040eb0097
:102f540025ff070002003700baff0700004f780082
:102f64001e4078000004e000fbff35000080fa00fa
:102f7400000006000200fa00004f7800f0c3b3001e
:102f84009e40780080cf500008003e0010c0b3007f
:102f9400340007001e4078000064a000c7ff07004b
:102fa40010c0b3003ee8b7000a0037001e407800a6
:102fb4000004e000070035000040eb002900070092
:102fc40000ccb3001e4040000064a000bbff07001b
:102fd4003e68ef001e417800c183200082487800db
:102fe4000080fa00000006000200fa00004f78009a
:102ff4001e407800e74f500006003e0080cbb3002f
:103004001e407000adff07001e417800d1832000f0
:10301400824878000080fa00000006000200fa00ee
:10302400004f78000e00e800014878001e40780048
:10303400d0ff07000e00e80010407800eaff070008
:103044000080fa00000006000200fa00004f780039
:1030540000ccb3001e40700098ff07000080fa0007
:10306400000006000200fa00004f78000040eb0068
:10307400f9fe07001e4078000004e0000a003a0050
:103084000040eb00e6fe070010c0b3000eff07008f
:103094000040eb00fefe0700f0c3b30087ff07000b
:1030a4003e68ef000a0037000040eb00dcfe07003a
:1030b4000040eb0004ff070010c0b300f4fe07005b
:1030c400f0c3b3007dff070010c0b3003ee8b700b3
:1030d4000080fa00000006000200fa0010c0b300ed
:1030e4001eff070010c0b300dbfe070010c0b300d2
:1030f400cbfe07006aff070010c0b300bafe07004a
:1031040050ff0700004f78000040eb00b6fe0700b8
:103114000040eb0011ff07000040eb00cefe07006b
:103124000040eb00befe07001e4078000080fa005d
:10313400000006000000fa000040eb0021ff070039
:103144000040eb00c4fe07000040eb00b4fe0700a3
:103154000040eb00a4fe07000040eb00dafe07008d
:103164000040eb00cafe070010c0b30090fe070049
:10317400a00020005cff07000040eb008cfe07006d
:10318400a000200058ff070010c0b30088fe07000d
:1031940010c0b300b3ff0700e0c3b30047ff07004c
:1031a40000ccb30045ff070080cbb30043ff07000a
:1031b40000c4b30041ff0700f0c3b3003fff0700a2
:1031c4000040eb00a7ff0700e0c3b3003bff07008c
:1031d40000ccb30039ff070080cbb30037ff0700f2
:1031e40000c4b30035ff0700f0c3b30033ff07008a
:1031f4000080fa00000006000200fa00004f780088
:1032040010c0b30094fe07000040eb0084fe0700ea
:103214001e407800ebfe070021ff07000080fa0043
:10322400000006000200fa008040eb000e00e800f7
:1032340001487800210037000e00e8009040780033
:103244000040eb0075ff07000040eb00004f7800e2
:10325400030037000040eb00e7ff07001e4fe800c3
:10326400f0c3b3009e40780080cf5000f9ff3600d1
:103274000e00e8009040780000c4b30067ff070028
:103284000040eb00004f7800030037000040eb00e3
:10329400d9ff07001e4fe800f0c3b3009e4078003a
:1032a40080cf5000f9ff36000e00e800104078008f
:1032b4008040e8000e00e800014878000e00e800b5
:1032c40010407800e74f5000dbff36000080fa0022
:1032d400000006000200fa008040eb000e00e80047
:1032e40001487800210037000e00e8009040780083
:1032f4000040eb0049ff07000040eb00004f78005e
:103304000300370000c0eb00bbff07001e4fe800be
:10331400f0c3b3009e40780080cf5000f9ff360020
:103324000e00e8009040780000c4b3003bff0700a3
:103334000040eb00004f78000300370000c0eb00b2
:10334400adff07001e4fe800f0c3b3009e407800b5
:1033540080cf5000f9ff36000e00e80010407800de
:103364008040e8000e00e800014878000e00e80004
:1033740010407800e74f5000dbff36000080fa0071
:10338400000006000400fa008e80e800800878003f
:103394008040eb000e00e80001487800340037005c
:1033a4000e00e800904078000040eb001bff07008f
:1033b4000040eb00004f78000c0037000e00e800de
:1033c400104078000080fb00c700dd001e80fb0079
:1033d400008040008e80e80091007800008040006a
:1033e4001040780084ff07001e4fe800f0c3b300cc
:1033f4009e40780080cf5000f0ff36000e00e800b9
:103404009040780000c4b30004ff07000040eb00c4
:10341400004f78000d0037000e00e80010407800df
:103424000080fb00c700dd001e80fb000080400020
:103434000004b0008e80e800910078000080400015
:10344400104078006cff07001e4fe800f0c3b30083
:103454009e40780080cf5000efff36000e00e80059
:10346400104078008040e8000e00e8000148780031
:103474000e00e80010407800e74f5000c8ff360007
:103484000080fa00000006000400fa000e81e80043
:103494000049780063004700014878000040eb00d1
:1034a400004f780063004700104078000080fb0064
:1034b4004300de0000407800804078000e80e80081
:1034c40010407800d5fe070003ff0700004f780086
:1034d40063004700104078000080fb004300de00da
:1034e40000407800804078000e80e80010407800aa
:1034f400cafe070063004700104078000080fb000c
:1035040067006000110020000008dd0080407800a2
:103514001e40780000c0700037ff07000080fa00ea
:10352400000006000400fa000e81e800004978005b
:1035340063004700014878000040eb00004f78002a
:1035440063004700104078000080fb004300de0069
:1035540000407800804078000e80e8001040780039
:10356400aefe0700dcfe0700004f78006300470052
:10357400104078000080fb004300de00004078002b
:10358400804078000e80e80010407800a3fe070019
:1035940063004700104078000080fb006700600073
:1035a400110020000008dd000040780080c0ea001f
:1035b4001e40780000c060000fff07000080fa0082
:1035c400000006000c00fa00e8014700804978007a
:1035d40069004700014878006a0047000248780003
:1035e4000000eb00000f78008000eb000e80e80084
:1035f400010878008000eb006400470001087800af
:103604006900470090407800680047001040780047
:1036140080c0500066004700014878006a004700f7
:10362400104078008080fb000e80e80001087800dc
:103634006a004700104078008080fb00e0ff2f0004
:103644000088b90000007800630f40008f00370045
:103654000e80e80010007800804078006900470080
:103664001040780080c040006400470010007800db
:103674000041780068004700104078000040410095
:1036840081ff07000e80e8001000780000407800f9
:10369400e90047009140780080c050006400470072
:1036a400100078000041780068004700104078005e
:1036b4000040410074ff07000e80e800100078000d
:1036c40080407800690047001040780080c04000c6
:1036d400640047001000780000407800680147004b
:1036e400124178000040510067ff07000e80e80097
:1036f4001000780000407800e9004700914078000d
:1037040080c050006400470010007800004078003a
:103714006801470012417800004051005aff070039
:10372400640047001000780080407800690047007a
:103734001040780080c040000e80e800100078003f
:1037440000417800690047001040780000414100c2
:103754006600470010407800004051004aff07000f
:10376400640047001000780000407800e90047003a
:103774009140780080c050000e80e800100078006e
:103784000041780069004700104078000041410082
:103794006600470010407800004051003aff0700df
:1037a40064004700100078008040780069004700fa
:1037b4001040780080c040000e80e80010007800bf
:1037c400004078006901470012417800004151002f
:1037d4006600470010407800004051002aff0700af
:1037e400640047001000780000407800e9004700ba
:1037f4009140780080c050000e80e80010007800ee
:1038040000407800690147001241780000415100ee
:103814006600470010407800004051001aff07007e
:103824001e0078000000e00006003d006400470030
:10383400100078004200dd00660040001e0f4000ca
:103844000d00370064004700900078000e80e80007
:1038540010007800008050004200dd006a00400043
:103864001e0f40000e80e800100078008000e90080
:103874000e80e8000108780064004700100078001a
:103884008000e800640047000108780064004700f5
:10389400900078000e80e80010007800808f5000bf
:1038a4006bff34000080fa00000006000600fa00f6
:1038b4000e82e800004a780063004700014878005f
:1038c4006400470002487800650047000348780018
:1038d4000040eb00004f78000040eb00004f780000
:1038e4000d0037000e80e800104078001e404000b4
:1038f400e300470091407800e3fe07000e80e800f3
:10390400104078001e404000e500470091407800d8
:10391400ddfe07001e4fe8009e80fb0064004700a8
:10392400104078000081fb000e80e8001040780011
:103934000080fb00000051000000e800808f500070
:10394400e8ff35000040eb00004f78000f0037001f
:1039540063004700104078001e404000804078001b
:103964000e80e80010407800c7fe0700630047009f
:10397400104078001e4040008040780064004700fa
:1039840010407800c0fe07001e4fe8009e80fb0038
:1039940065004700104078000081fb006300470089
:1039a400104078000080fb00000051000000e80097
:1039b400808f5000e6ff35000080fa00000006000a
:1039c4000400fa008e80e800804878003cc8bf00fc
:1039d4000080fb00e5004000f0072000808f5000cd
:1039e400080034003dc8bf000040e8003de8b700cf
:1039f4003dc8bf00e74f5000010036003d68ef00ae
:103a04003c68ef00d1832000914078003cc8bf009f
:103a140082fd07000040eb00004f780015003700de
:103a24000e80e800104078000000fb006500b9003b
:103a34000000780001f62f00808040001e80fb000b
:103a440000804000c1dc2800008040001040780065
:103a5400e9fd07003cc8bf000040e8003ce8b700af
:103a6400d1832000914078003cc8bf006bfd070063
:103a74001e4fe8001e407800e44f5000e8ff360077
:103a84000040eb00dcfd07003cc8bf000040e8003c
:103a94003ce8b7000080fa00000006000400fa00c9
:103aa4008e80e800804878003cc8bf000080fb009e
:103ab400e8004000f0072000808f50000b00340025
:103ac4003dc8bf000040e8003de8b7003dc8bf0066
:103ad4000040e8003de8b7003dc8bf00e74f500094
:103ae400010036003d68ef003c68ef000040eb0049
:103af400004f780042003700d183200091407800c5
:103b04003cc8bf0045fd07000e80e8001040780067
:103b14000000fb000002b100c400dd001e80fb00b9
:103b240000804000c18128000080400010407800df
:103b3400b1fd07003dc8bf000040e80080407800a8
:103b440080cbb30000c07000dcfc0700c183200000
:103b540091407800f0c3b30080cf500008003e00cd
:103b640010c0b3003ffd07003cc8bf000064a000c4
:103b7400d2fc070010c0b3003ee8b7000c003700c9
:103b84003cc8bf000004e000090035000040eb0021
:103b940034fd0700c18320009140780000ccb300bd
:103ba40000c040000064a000c4fc07003e68ef00b1
:103bb4000e80e800104078000000fb000002b10015
:103bc400c400dd001e80fb0000804000680040004f
:103bd400c1812800008040001040780086fd070065
:103be4003cc8bf000040e8003ce8b700d183200097
:103bf400914078003cc8bf0008fd07001e4fe80054
:103c04001e407800e74f5000bbff36000080fa00ea
:103c1400000006000200fa00000f780004003700dc
:103c24001e0078001040780065ff07001e0fe800b2
:103c34001e007800104078000004e000f8ff3a000d
:103c44000080fa00000006000600fa00e4004700c5
:103c54008048780064004700104078000080fb0032
:103c6400cf80de000df207006266260063fa2300af
:103c740024f20700eef107000e81e8000049780005
:103c84000040eb00004f78001b0037000e00e800f6
:103c94008e80e800114878000b0037000e00e80021
:103ca400904078001e407800f7fd07000e00e80001
:103cb400904078000e80e8001040780080c04000fa
:103cc4000e00e800014878000e00e800104078007b
:103cd4008080fb000e80e800104078000080fb002c
:103ce4000204200000005100808f5000ebff3500db
:103cf4009e40780063cf4000e0c7b3009e40780048
:103d040080cf5000e1ff3600640047001040780087
:103d140000cfe900150037008040eb000e00e800fa
:103d240001487800090037000e00e8009040780050
:103d34001e407800d4fd07000e00e8001040780013
:103d440080c0e8000e00e800014878000e00e8009a
:103d540090407800e0c3b30080cf5000f2ff3600fb
:103d640064004700104078001e4f4000b0c7b30005
:103d74009e40780080cf5000e7ff36000080fa00b4
:103d8400000006000600fa000e82e800004a7800ef
:103d94006300470001487800640047000248780047
:103da40065004700034878000040eb00004f7800ae
:103db4000040eb00004f78000d0037000e80e80053
:103dc400104078001e404000e30047009140780016
:103dd400d4fd07000e80e800104078001e4040002b
:103de400e500470091407800cefd07001e4fe80033
:103df4009e80fb0064004700104078000081fb00b7
:103e04000e80e800104078000080fb0000005100a4
:103e14000000e800808f5000e8ff35000040eb0010
:103e2400004f78000f00370063004700104078000f
:103e34001e404000804078000e80e800104078006a
:103e4400b8fd070063004700104078001e404000a2
:103e5400804078006400470010407800b1fd0700fe
:103e64001e4fe8009e80fb0065004700104078006c
:103e74000081fb0063004700104078000080fb00d5
:103e8400000051000000e800808f5000e6ff35007c
:103e94000080fa00000006000400fa008e80e800aa
:103ea400800878000000eb00000f78000100370064
:103eb4001e0fe8000e80e800100078009e007800d5
:103ec400808f5000faff39000080fa0000000600dd
:103ed4000000fa00cda2a900cdc2a9000080fa001a
:103ee400000006000000fa000d42a90000042000b2
:103ef400a01088008d20a80071108000c0ff2f0042
:103f040000806000701088000de2a8000f42a80035
:103f14000080fa00000006000200fa00000f78009a
:103f2400000000007110800000102000008060007c
:103f34000000e000fbff32006010800066006000bb
:103f4400e60f500003003a009e00780081108800bc
:103f540003003700f00f20001e006000801088006e
:103f64000080fa00000006000000fa00cfa2a800ba
:103f7400cfc2a900d1a2a800d1c2a900401f20002d
:103f8400c5ff07005040800090408800d1a2a900de
:103f9400d1c2a800cfa2a900cfc2a800401f200010
:103fa400bdff070060408000a04088009040800072
:103fb400100ab1008000eb003bf10700324d2a00eb
:103fc40043d123002ef2070019f107000000780006
:103fd40070408800a0408000401fb1008000eb00ca
:103fe40031f10700a2772c0093ca230024f20700c2
:103ff4000ff1070000007800804088000080fa007c
:10400400000006000400fa008e80e80080087800b2
:104014000e80e80010007800c300de00500c22007f
:104024000008b8004408de00004f780001c3b30064
:104034001ec0400062fe07009e80fb0080c12f006e
:104044000088b900000078008e80e80091007800b4
:10405400808040000e80e800010878000e80e800af
:1040640010007800c200de00b04721000008b8004c
:104074000100d100004f780001c3b3001ec040000e
:104084004ffe07009e80fb00c0f92f000088b90096
:10409400000078008e80e800910078008080400065
:1040a4000e80e800010878000e80e8009000780097
:1040b400d0cc2c000008b8004308de00004f780084
:1040c40001c3b3001ec040003dfe07009e80fb00fc
:1040d40060ff2f000088b900000078008e80e8009f
:1040e40091007800808040000e80e800010878008c
:1040f4000e80e80010007800004078000043b00013
:104104002ffe07000080fa00000006000400fa00f9
:104114008e80e800800878000e80e80010007800a7
:10412400c300de00500c22000008b8004408de0082
:10413400004f78001e80fb000003b00076ff0700ec
:104144009e80fb0080c12f000088b9000000780029
:104154008e80e80091007800808040000e80e800a6
:10416400010878000e80e80010007800c200de002c
:10417400b04721000008b8000100d100004f7800ca
:104184001e80fb000003b00063ff07009e80fb005d
:10419400c0f92f000088b900000078008e80e80084
:1041a40091007800808040000e80e80001087800cb
:1041b4000e80e80090007800d0cc2c000008b800f5
:1041c4004308de00004f78001e80fb000003b000af
:1041d40051ff07009e80fb0060ff2f000088b9009c
:1041e400000078008e80e800910078008080400014
:1041f4000e80e800010878000e80e80010007800c6
:104204000003b00044ff07000080fa00000006002d
:104214000200fa00000f7800000520003eff0700ae
:10422400900420003cff0700200520003aff07000f
:104234000002200038ff07001e007800b3ff0700cb
:104244000828ef0003003700404080000000e80029
:104254004040880041408000703e2000808f500024
:10426400f9ff36000080fa00000006000200fa00a0
:10427400000f78000002200027ff0700d004200070
:1042840025ff07001005200023ff0700300320004e
:1042940021ff0700000220001fff07001e00780016
:1042a4009aff07000828ef00030037004040800011
:1042b4000000e8004040880041408000703e20003b
:1042c400808f5000f9ff36000080fa0000000600dd
:1042d4000200fa00000f7800000220000eff070021
:1042e400600420000cff0700f00420000aff070010
:1042f4004005200008ff07000002200006ff070019
:104304001e00780081ff07000828ef000300370033
:10431400404080000000e8004040880041408000a8
:10432400703e2000808f5000f9ff36000080fa00b4
:10433400000006000200fa00000f7800007d200053
:104344009e007800808f50000c003600e040800012
:104354000000e800e0408800e04080006100600068
:10436400004078000004e000030032001000200048
:10437400f0408800010037001e28ef00f040800064
:104384000080fa00000006000200fa00000f780026
:104394002428ef00000000009e00780020418000e7
:1043a400808f5000fcff3e000080fa0000000600f1
:1043b4000000fa00caa2a80050002000f2ff070083
:1043c400caa2a900300c2000efff07000080fa0009
:1043d400000006000000fa00caa2a800f0002000b5
:1043e400e9ff0700caa2a900900b2000e6ff07001e
:1043f4000080fa00000006000000fa00caa2a8002b
:1044040080022000e0ff0700caa2a900000a2000e1
:10441400ddff07000080fa00000006000000fa003b
:104424006183200091407800d0c2b30080cf500057
:104434000c003a007183200091407800e0c2b30080
:1044440080cf500007003a0081832000914078001b
:10445400d0c2b30080cf500002003a0010c0b300b5
:10446400010037000040eb000080fa000000060065
:104474000000fa00d1408000803e2000808f500070
:104484000a00360040062000bfff070050418000ac
:104494000000e800504188005041800070418800cd
:1044a400400520009cfe0700660037002a28ef0024
:1044b400704180006a00b9000000780070418800f3
:1044c400e004200094fe070060418000e20f5000e9
:1044d4000e003e00704180000000e0000b0032003e
:1044e4006041800072418000800040000083200011
:1044f40000804000020878002e28ef006041800010
:104504000000e800604188004e00370060418000f0
:10451400e20f50004b003a0081418000003220003d
:10452400808f50000700360081418000f04a20004f
:10453400808f500003003e00d0c2b30036e8b700bd
:104544000a00370081418000e0152000808f500070
:10455400060036008141800090282000808f5000a2
:1045640002003e00e0c2b30036e8b700914180008b
:1045740000322000808f50000700360091418000f7
:10458400f04a2000808f500003003e00d0c2b300e8
:1045940037e8b7000a00370091418000e015200099
:1045a400808f500006003600914180009028200042
:1045b400808f500002003e00e0c2b30037e8b7002d
:1045c400a141800000322000808f50000700360097
:1045d400a1418000f04a2000808f500003003e007b
:1045e400d0c2b30038e8b7000a003700a141800008
:1045f400e0152000808f500006003600a1418000a5
:1046040090282000808f500002003e00e0c2b300da
:1046140038e8b70081ff07000004e0000200320020
:1046240010c0b300080037007cff07000004a2009c
:104634000004e000020032000040eb0002003700fa
:104644002c28ef00000037000080fa00000006006c
:104654000400fa00000f78000e80e80001087800da
:104664000628ef0003003700304080000000e80017
:104674003040880031408000f0702200808f50006c
:10468400f9ff3600c702a800c722a800c782a80005
:10469400d202a9000428ef00030037002040800064
:1046a4000000e8002040880021408000f0a52e0092
:1046b400808f5000f9ff360091f9070004fe0700cf
:1046c4009cfa0700d7fa070006fe0700350007002a
:1046d4002d000700a1e2a8006500070022fe0700e4
:1046e400401d290027fb070061c0b3000040eb0018
:1046f4004afa0700405d290046fd070061c0b30087
:1047040090c0b30045fa0700704080003dfe0700ea
:1047140071c0b3000040eb0040fa0700705d29004f
:104724003cfd070071c0b30090c0b3003bfa070022
:104734008040800033fe070071408000b0032000f9
:10474400808f50000b00360071408000e00620008e
:10475400808f500007003e0080408000e60f50002c
:104764000400360080408000ee0f500001003e003f
:10477400acfa0700d0408000d5fe0700d00020002e
:10478400e5fd0700d5ff37000000fa00a902a900e3
:10479400a922a900c702a800c722a8000080fa0025
:1047a400000006000000fa00a1a2a9000115800083
:1047b400f0cf2f00008060000015880001158000f4
:1047c400000e20000100700000158800a022a8003f
:1047d4001115800000002e000100700010158800e3
:1047e400a342a8001115800030fc2f000080600057
:1047f4000030a00010158800a222a900a202a9007e
:104804002115800000f021000100700020158800af
:10481400a4e2a8002115800000fc2f0000806000a5
:10482400f001b30020158800a782a900a682a90080
:104834003115800000ff2f000080600030158800d3
:1048440031158000f00f2f000080600030158800c3
:10485400a822ef000070200050158800a042a80094
:104864008560a8008d60a8000080fa0000000600a2
:104874000000fa000621ef00803e20006008880056
:104884001021a90084c0a9008cc0a80011e1a800cf
:084894000080fa00000006009c
:020000040000fa
:10489c00000800003c000000000000003c08000084
:1048ac0004000000000000004008000002000000ae
:0848bc000000000000000000f4
:020000040000fa
:0200000401f009
:040000000587000070
:020000040000fa
:0200000401f009
:040004003f000000b9
:020000040000fa
:0200000401f009
:04001400ffffff00eb
:00000001FF
