:020000040000fa
:080000000001040000000000f3
:020000040000fa
:100008009401000094010000940100009401000094
:100018009401000094010000940100009401000084
:100028009401000094010000940100009401000074
:1000380094010000940100004203000094010000b4
:1000480094010000b201000094010000ba01000010
:100058009401000094010000940100009401000044
:100068009401000094010000940100009401000034
:100078009401000094010000940100009401000024
:100088009401000094010000940100009401000014
:100098009401000094010000940100009401000004
:1000a80094010000940100009401000094010000f4
:1000b80094010000940100009401000094010000e4
:1000c80094010000940100009401000094010000d4
:1000d80094010000940100009401000094010000c4
:1000e80094010000940100009401000094010000b4
:0800f8009401000094010000d6
:020000040000fa
:100108009401000094010000940100009401000093
:100118009401000094010000940100009401000083
:100128009401000094010000940100009401000073
:1001380094010000940100004203000094010000b3
:1001480094010000b201000094010000ba0100000f
:100158009401000094010000940100009401000043
:100168009401000094010000940100009401000033
:100178009401000094010000940100009401000023
:100188009401000094010000940100009401000013
:100198009401000094010000940100009401000003
:1001a80094010000940100009401000094010000f3
:1001b80094010000940100009401000094010000e3
:1001c80094010000940100009401000094010000d3
:1001d80094010000940100009401000094010000c3
:1001e80094010000940100009401000094010000b3
:0801f8009401000094010000d5
:020000040000fa
:10020000ef8220000eff20000e0188000000000099
:1002100000012000200288000c0007008060200000
:100220000100200011000700000020000000e00095
:10023000020032000000020000000000f204020090
:10024000000000000040da000000fe004440a90069
:10025000000020000000e000030032000000200049
:10026000a00188004440a800000006009101880019
:10027000800078000000eb0015003700e2804000ad
:1002800032a0b4009101ba00e280400032a0b40074
:100290009102ba00e280400032a0b4000002eb00fc
:1002a000472bde00f507b200602ce10004003a00a5
:1002b0000059eb008301e900fdff3e000400370018
:1002c0006128e100010032000082eb000400070019
:1002d0001101ba000200e000e8ff3a000000060049
:1002e0003159ba008301e9000c0032002159ba00eb
:1002f0008301e900080032000400e00003003a0036
:10030000e280400032a0b400f5ff370011d9ba00f6
:100310008301e900faff3a008100e800e180400033
:1003200032a0b400000006000040da000000fe0029
:020000040000fa
:100330000000fa0004042000a41088000d42a80068
:100340008d20a80075108000c4ff2f000482620079
:10035000741088000de2a8000f42a8000080fa0087
:10036000000006000000fa008520a9000080fa00c5
:1003700000400600841f78000000fa00041480008a
:100380000440880014148000144088002414800065
:10039000244088008560a9000080fa004f027800a0
:1003a000004006000200fa00000f78000000000084
:1003b000751080000410200004826200e00f5200db
:1003c000fbff32006410800066026200e60f5200fc
:1003d00003003a001e0278008410880003003700f2
:1003e000f40f20001e026200841088000080fa00d2
:1003f000000006000400fa00100798009e0290001a
:10040000843e2000110009008482d8000002780098
:10041000044f78009e4278000582fb000403b00080
:1004200004007800dfff07001e4078008082fb0098
:1004300084c12f0004aab900040278009e02900033
:1004400004824200140798009e0290004406200097
:10045000110009008482d80000027800044f78005f
:100460009e4278000582fb000403b000040078007f
:10047000ccff07001e4078008082fb00c4f92f00eb
:1004800004aab900040278009e029000048242008f
:10049000140798009e029000a4002000110009009b
:1004a0008482d80000027800044f78009e427800d1
:1004b0000582fb000403b00004007800b9ff0700c8
:1004c0001e4078008082fb0064ff2f0004aab90060
:1004d000040278009e0290000482420014079800f3
:1004e0001e0290000403b00004007800adff070076
:1004f0000080fa00000006000200fa00000f7800f9
:1005000000052000a7ff070090042000a5ff0700ba
:1005100020052000a3ff070000022000a1ff070024
:100520001e007800b3ff07000002eb007440880053
:1005300003003700744080000402e8007440880023
:1005400075408000743e2000848f5200f9ff360011
:100550000080fa00000006000200fa00000f780098
:10056000000220008fff0700d00420008dff07004d
:10057000100520008bff07003003200089ff0700d3
:100580000002200087ff07001e00780099ff070087
:100590000002eb00744088000300370074408000c4
:1005a0000402e8007440880075408000743e20001a
:1005b000848f5200f9ff36000080fa000000060028
:1005c0000200fa00000f78000002200075ff07000b
:1005d0006004200073ff0700f004200071ff070093
:1005e000400520006fff0700000220006dff07009c
:1005f0001e0078007fff07000002eb0074408800b7
:1006000003003700744080000402e8007440880052
:1006100075408000743e2000848f5200f9ff360040
:100620000080fa00000006000200fa00000f7800c7
:10063000047d20009e027800848f52000d00360059
:10064000344080000402e8003440880034408000d8
:100650006102620004427800e04f52000300320061
:100660001400200044408800020037000002eb0024
:100670004440880044408000040078000080fa0074
:1006800000000600849fbe000000fa000002eb009c
:100690003408880014002000b44088009440800092
:1006a0000402e80094408800a44080000402e800ae
:1006b000a440880095408000843e2000848f520032
:1006c00004003a000002eb0094408800140020006f
:1006d000c440880084c0a9000080fa004f02be0018
:1006e000004006000200fa00000f78000002eb0054
:1006f000a4408800000000009e027800a440800012
:10070000848f5200fcff3e000080fa0000000600cb
:100710000000fa00caa2a80050002000f1ff070064
:10072000caa2a900300c2000eeff07000080fa00ea
:10073000000006000000fa00caa2a800f000200095
:10074000e8ff0700caa2a900900b2000e5ff070000
:100750000080fa00000006000000fa00caa2a8000b
:1007600080022000dfff0700caa2a900000a2000c3
:10077000dcff07000080fa00000006000000fa001d
:100780002582200095427800d4c2b30084cf520065
:100790000c003a003582200095427800e4c2b30094
:1007a00084cf520007003a0045822000954278002d
:1007b000d4c2b30084cf520002003a0014c0b30088
:1007c000010037000042eb00044078000080fa008e
:1007d000000006000000fa0025408000843e200052
:1007e000848f52000a00360040062000bdff07003b
:1007f000444180000402e8004441880044418000f4
:10080000d440880040052000e6fe07007100370054
:100810000002eb0044418800d44080006a22b90005
:1008200004027800d4408800e0042000ddfe0700c8
:1008300054418000e20f52000f003e00d44080007f
:10084000e00f52000c00320054418000d54080007f
:1008500004034200c481200004024300050a78001a
:100860000002eb00d4408800544180000402e800fc
:10087000544188005700370054418000e20f520075
:1008800054003a00e540800004322000848f52007a
:1008900008003600e5408000f44a2000848f5200b2
:1008a00004003e00d4c2b3000440780022e8b70040
:1008b0000b003700e5408000e4152000848f5200d3
:1008c00007003600e540800094282000848f520005
:1008d00003003e00e4c2b3000440780022e8b70001
:1008e000f540800004322000848f5200080036005a
:1008f000f5408000f44a2000848f520004003e003e
:10090000d4c2b3000440780023e8b7000b003700de
:10091000f5408000e4152000848f52000700360067
:10092000f540800094282000848f520003003e0090
:10093000e4c2b3000440780023e8b700054180001a
:1009400004322000848f52000800360005418000e8
:10095000f44a2000848f520004003e00d4c2b30049
:100960000440780024e8b7000b0037000541800000
:10097000e4152000848f52000700360005418000f6
:1009800094282000848f520003003e00e4c2b3008c
:100990000440780024e8b70078ff070000427800a0
:1009a000e04f52000200320014c0b3000a003700ca
:1009b00072ff0700004278000404a200e04f5200da
:1009c000020032000042eb00030037000002eb009f
:1009d0005441880000003700044078000080fa008d
:1009e000000006000400fa00000f780011079800cc
:1009f0000002eb0064408800030037006440800080
:100a00000402e8006440880065408000f470220021
:100a1000848f5200f9ff3600c602a800c622a80043
:100a2000c642a800c6a2a9000002eb0054408800fc
:100a300003003700544080000402e800544088005e
:100a400055408000f4a52e00848f5200f9ff360037
:100a500037fe070028000700a1e2a8006100070098
:100a6000c4822000144278000402fb00e00f520010
:100a70000b003a000440800004007800eafe070002
:100a800000027800e10f520005003a00c482200005
:100a9000144278000442e800044078002ce8b700d3
:100aa0004cff0700004278000440780026e8b700b9
:100ab0006482200014427800e04f520003003200ac
:100ac0000005200037fe0700070037006482200081
:100ad000144278000404a200e04f520002003200e9
:100ae000b00420002ffe0700d00020002dfe0700dc
:100af00007ff0700daff37000000fa00a1a2a900f3
:100b0000041580000480a1000490a1000415880051
:100b1000041580000450a0000460a0000470a00030
:100b200004158800a022a8001415800004d0a0009d
:100b300004e0a00004f0a00014158800a342a8005f
:100b4000141580000420a1000430a0000440a1007e
:100b50000450a10014158800a222a900a202a90035
:100b60002515800004f021000482720024158800fd
:100b7000a4e2a8002515800004fc2f000482620076
:100b8000f401b30024158800a782a900a682a90059
:100b9000341580000400a1000410a1000420a1006d
:100ba0000430a10034158800341580000480a100b1
:100bb0000490a10004a0a10004b0a1003415880095
:100bc0000002eb00441588007400200054158800d2
:100bd000a042a8008560a8008d60a8000080fa00ef
:100be000000006000000fa000002eb003408880054
:100bf000843e2000640888001021a90084c0a90058
:100c00008cc0a80011e1a8000080fa0000000600d6
:020000040000fa
:100c10000008000028000000000000002808000074
:100c200006000000020000000000000000000000bc
:040c300000000000c0
:020000040000fa
:0200000401f009
:04000000e5bf000058
:020000040000fa
:0200000401f009
:04000400ff7f00007a
:00000001FF
